{
  "abi": [
    {
      "anonymous": false,
      "inputs": [
        {
          "indexed": false,
          "internalType": "uint256",
          "name": "capsuleId",
          "type": "uint256"
        },
        {
          "indexed": false,
          "internalType": "address",
          "name": "capsuleCreator",
          "type": "address"
        },
        {
          "indexed": false,
          "internalType": "address",
          "name": "recipient",
          "type": "address"
        },
        {
          "indexed": false,
          "internalType": "uint256",
          "name": "unlockTime",
          "type": "uint256"
        },
        {
          "indexed": false,
          "internalType": "uint256",
          "name": "amountGoal",
          "type": "uint256"
        }
      ],
      "name": "CapsuleCreated",
      "type": "event"
    },
    {
      "anonymous": false,
      "inputs": [
        {
          "indexed": false,
          "internalType": "uint256",
          "name": "capsuleId",
          "type": "uint256"
        }
      ],
      "name": "CapsuleOpened",
      "type": "event"
    },
    {
      "anonymous": false,
      "inputs": [
        {
          "indexed": false,
          "internalType": "uint256",
          "name": "capsuleId",
          "type": "uint256"
        },
        {
          "indexed": false,
          "internalType": "uint256",
          "name": "value",
          "type": "uint256"
        }
      ],
      "name": "GiftAdded",
      "type": "event"
    },
    {
      "inputs": [
        {
          "internalType": "uint256",
          "name": "_capsuleId",
          "type": "uint256"
        },
        {
          "internalType": "string",
          "name": "_videoIPFSHash",
          "type": "string"
        }
      ],
      "name": "addGift",
      "outputs": [],
      "stateMutability": "payable",
      "type": "function"
    },
    {
      "inputs": [],
      "name": "capsuleCounter",
      "outputs": [
        {
          "internalType": "uint256",
          "name": "",
          "type": "uint256"
        }
      ],
      "stateMutability": "view",
      "type": "function"
    },
    {
      "inputs": [
        {
          "internalType": "uint256",
          "name": "",
          "type": "uint256"
        }
      ],
      "name": "capsules",
      "outputs": [
        {
          "internalType": "uint256",
          "name": "id",
          "type": "uint256"
        },
        {
          "internalType": "address",
          "name": "capsuleCreator",
          "type": "address"
        },
        {
          "internalType": "address",
          "name": "recipient",
          "type": "address"
        },
        {
          "internalType": "uint256",
          "name": "unlockTime",
          "type": "uint256"
        },
        {
          "internalType": "uint256",
          "name": "amountGoal",
          "type": "uint256"
        },
        {
          "internalType": "uint256",
          "name": "currentAmount",
          "type": "uint256"
        },
        {
          "internalType": "bool",
          "name": "isOpened",
          "type": "bool"
        },
        {
          "internalType": "uint256",
          "name": "giftsCount",
          "type": "uint256"
        }
      ],
      "stateMutability": "view",
      "type": "function"
    },
    {
      "inputs": [
        {
          "internalType": "uint256",
          "name": "_unlockTime",
          "type": "uint256"
        },
        {
          "internalType": "uint256",
          "name": "_amountGoal",
          "type": "uint256"
        }
      ],
      "name": "createCapsule",
      "outputs": [],
      "stateMutability": "nonpayable",
      "type": "function"
    },
    {
      "inputs": [
        {
          "internalType": "uint256",
          "name": "_capsuleId",
          "type": "uint256"
        },
        {
          "internalType": "uint256",
          "name": "giftIndex",
          "type": "uint256"
        }
      ],
      "name": "getGift",
      "outputs": [
        {
          "internalType": "address",
          "name": "gifter",
          "type": "address"
        },
        {
          "internalType": "string",
          "name": "videoIPFSHash",
          "type": "string"
        }
      ],
      "stateMutability": "view",
      "type": "function"
    },
    {
      "inputs": [
        {
          "internalType": "uint256",
          "name": "_capsuleId",
          "type": "uint256"
        }
      ],
      "name": "getGiftsCount",
      "outputs": [
        {
          "internalType": "uint256",
          "name": "",
          "type": "uint256"
        }
      ],
      "stateMutability": "view",
      "type": "function"
    },
    {
      "inputs": [
        {
          "internalType": "uint256",
          "name": "_capsuleId",
          "type": "uint256"
        }
      ],
      "name": "openCapsule",
      "outputs": [],
      "stateMutability": "nonpayable",
      "type": "function"
    }
  ],
  "bytecode": {
    "object": "0x608060405234801561001057600080fd5b506111eb806100206000396000f3fe6080604052600436106100705760003560e01c80635c18e55c1161004e5780635c18e55c146101675780636cd077ed14610187578063d2db53d7146101b5578063e50d914c146101d957600080fd5b806315ce38071461007557806339b54d1a14610097578063517bbf46146100aa575b600080fd5b34801561008157600080fd5b5061009561009036600461093f565b610209565b005b6100956100a5366004610977565b610354565b3480156100b657600080fd5b506101196100c5366004610a32565b6000602081905290815260409020805460018201546002830154600384015460048501546005860154600687015460089097015495966001600160a01b0395861696959094169492939192909160ff169088565b604080519889526001600160a01b0397881660208a015295909616948701949094526060860192909252608085015260a0840152151560c083015260e0820152610100015b60405180910390f35b34801561017357600080fd5b50610095610182366004610a32565b6105b2565b34801561019357600080fd5b506101a76101a236600461093f565b6107f1565b60405161015e929190610a4b565b3480156101c157600080fd5b506101cb60015481565b60405190815260200161015e565b3480156101e557600080fd5b506101cb6101f4366004610a32565b60009081526020819052604090206008015490565b6001805490600061021983610abf565b919050555060003390506000818460405161023390610932565b6001600160a01b0390921682526020820152604001604051809103906000f080158015610264573d6000803e3d6000fd5b506001805460008181526020818152604080832093845592840180546001600160a01b038981166001600160a01b03199283168117909355865485528585206002018054918916919092168117909155855484528484206003018b9055855484528484206004018a90558554845284842060050184905585548452848420600601805460ff191690558554845284842060080193909355935483519081529081019390935290820152606081018690526080810185905290915081907f63a49845d61925bf1fd5f6f8d54edd8a97f6fb81f3ba4ea22ba46ac089c118049060a00160405180910390a15050505050565b6000828152602081905260409020600101546001600160a01b03166103b95760405162461bcd60e51b815260206004820152601660248201527510d85c1cdd5b1948191bd95cc81b9bdd08195e1a5cdd60521b60448201526064015b60405180910390fd5b60008281526020819052604090206006015460ff16156104175760405162461bcd60e51b815260206004820152601960248201527810d85c1cdd5b19481a5cc8185b1c9958591e481bdc195b9959603a1b60448201526064016103b0565b6000828152602081905260409020600481015460059091015461043b903490610ad8565b11156104805760405162461bcd60e51b8152602060048201526014602482015273105b5bdd5b9d0819dbd85b08195e18d95959195960621b60448201526064016103b0565b6040805180820182523381526020808201848152600086815280835284812060088101548252600701909252929020815181546001600160a01b0319166001600160a01b0390911617815591519091829160018201906104e09082610b7a565b505050600083815260208190526040812060080180549161050083610abf565b909155505060008381526020819052604081206005018054349290610526908490610ad8565b90915550506000838152602081905260408082206002015490516001600160a01b03909116913480156108fc02929091818181858888f19350505050158015610573573d6000803e3d6000fd5b50604080518481523460208201527fe24dbc86f697a140d007444847453c8cbe7e760cc5d1517d93ae887b2b1e432591015b60405180910390a1505050565b6000818152602081905260409020600201546001600160a01b0316331461062b5760405162461bcd60e51b815260206004820152602760248201527f4f6e6c792074686520726563697069656e742063616e206f70656e207468652060448201526663617073756c6560c81b60648201526084016103b0565b60008181526020819052604090206003015442101561069a5760405162461bcd60e51b815260206004820152602560248201527f43617073756c65206973206e6f742079657420726561647920746f206265206f6044820152641c195b995960da1b60648201526084016103b0565b60008181526020819052604090206006015460ff16156106f85760405162461bcd60e51b815260206004820152601960248201527810d85c1cdd5b19481a5cc8185b1c9958591e481bdc195b9959603a1b60448201526064016103b0565b60008181526020819052604080822060068101805460ff1916600117905560020154815163e7c042d960e01b815291516001600160a01b03909116928392839263e7c042d99260048084019391929182900301818387803b15801561075c57600080fd5b505af1158015610770573d6000803e3d6000fd5b505050600084815260208190526040808220600181015460059091015491516001600160a01b03909116935081156108fc0292818181858888f193505050501580156107c0573d6000803e3d6000fd5b506040518381527f8c3e527bd7964ec4e70c29f3e35cd23f3e16c86783b6aa8cbb5cafad0036b914906020016105a5565b60008281526020819052604081206008015460609083106108545760405162461bcd60e51b815260206004820152601860248201527f4769667420696e646578206f7574206f6620626f756e6473000000000000000060448201526064016103b0565b6000848152602081815260408083208684526007018252808320815180830190925280546001600160a01b03168252600181018054929391929184019161089a90610af1565b80601f01602080910402602001604051908101604052809291908181526020018280546108c690610af1565b80156109135780601f106108e857610100808354040283529160200191610913565b820191906000526020600020905b8154815290600101906020018083116108f657829003601f168201915b5050509190925250508151602090920151919791965090945050505050565b61057b80610c3b83390190565b6000806040838503121561095257600080fd5b50508035926020909101359150565b634e487b7160e01b600052604160045260246000fd5b6000806040838503121561098a57600080fd5b82359150602083013567ffffffffffffffff808211156109a957600080fd5b818501915085601f8301126109bd57600080fd5b8135818111156109cf576109cf610961565b604051601f8201601f19908116603f011681019083821181831017156109f7576109f7610961565b81604052828152886020848701011115610a1057600080fd5b8260208601602083013760006020848301015280955050505050509250929050565b600060208284031215610a4457600080fd5b5035919050565b60018060a01b038316815260006020604081840152835180604085015260005b81811015610a8757858101830151858201606001528201610a6b565b506000606082860101526060601f19601f830116850101925050509392505050565b634e487b7160e01b600052601160045260246000fd5b600060018201610ad157610ad1610aa9565b5060010190565b80820180821115610aeb57610aeb610aa9565b92915050565b600181811c90821680610b0557607f821691505b602082108103610b2557634e487b7160e01b600052602260045260246000fd5b50919050565b601f821115610b7557600081815260208120601f850160051c81016020861015610b525750805b601f850160051c820191505b81811015610b7157828155600101610b5e565b5050505b505050565b815167ffffffffffffffff811115610b9457610b94610961565b610ba881610ba28454610af1565b84610b2b565b602080601f831160018114610bdd5760008415610bc55750858301515b600019600386901b1c1916600185901b178555610b71565b600085815260208120601f198616915b82811015610c0c57888601518255948401946001909101908401610bed565b5085821015610c2a5787850151600019600388901b60f8161c191681555b5050505050600190811b0190555056fe608060405234801561001057600080fd5b5060405161057b38038061057b83398101604081905261002f91610070565b600080546001600160a01b03191633179055600180546001600160a81b0319166001600160a01b039390931692909217600160a01b179091556002556100aa565b6000806040838503121561008357600080fd5b82516001600160a01b038116811461009a57600080fd5b6020939093015192949293505050565b6104c2806100b96000396000f3fe6080604052600436106100795760003560e01c80638da5cb5b1161004b5780638da5cb5b14610163578063a4e2d6341461019b578063e7c042d9146101cc578063f851a440146101e157005b80630562b9f7146100ba578063251c1aa3146100da578063370158ea14610103578063853828b61461014e57005b366100b857604080513381523460208201527f88a5966d370b9919b20f3e2c13ff65706f196a4e32cc2c12bf57088f88525874910160405180910390a1005b005b3480156100c657600080fd5b506100b86100d5366004610443565b610201565b3480156100e657600080fd5b506100f060025481565b6040519081526020015b60405180910390f35b34801561010f57600080fd5b50600054600154604080516001600160a01b0393841681529282166020840152600160a01b90910460ff161515908201524760608201526080016100fa565b34801561015a57600080fd5b506100b8610329565b34801561016f57600080fd5b50600154610183906001600160a01b031681565b6040516001600160a01b0390911681526020016100fa565b3480156101a757600080fd5b506001546101bc90600160a01b900460ff1681565b60405190151581526020016100fa565b3480156101d857600080fd5b506100b86103cc565b3480156101ed57600080fd5b50600054610183906001600160a01b031681565b6001546001600160a01b031633146102505760405162461bcd60e51b815260206004820152600d60248201526c2737ba103a34329037bbb732b960991b60448201526064015b60405180910390fd5b600154600160a01b900460ff161561027a5760405162461bcd60e51b81526004016102479061045c565b478111156102bf5760405162461bcd60e51b8152602060048201526012602482015271496e73756666696369656e742066756e647360701b6044820152606401610247565b604051339082156108fc029083906000818181858888f193505050501580156102ec573d6000803e3d6000fd5b5060408051338152602081018390527fb244b9a17ad633c6e83b7983ee04320484956a68ddbe96a0b70dfca1cf19d723910160405180910390a150565b6001546001600160a01b031633146103735760405162461bcd60e51b815260206004820152600d60248201526c2737ba103a34329037bbb732b960991b6044820152606401610247565b600154600160a01b900460ff161561039d5760405162461bcd60e51b81526004016102479061045c565b6040514790339082156108fc029083906000818181858888f193505050501580156102ec573d6000803e3d6000fd5b6000546001600160a01b031633146104125760405162461bcd60e51b81526020600482015260096024820152682737ba1030b236b4b760b91b6044820152606401610247565b6002544210156104345760405162461bcd60e51b81526004016102479061045c565b6001805460ff60a01b19169055565b60006020828403121561045557600080fd5b5035919050565b60208082526016908201527515d85b1b195d081a5cc81cdd1a5b1b081b1bd8dad95960521b60408201526060019056fea2646970667358221220cd4029e9c1516581330f792cb187857f6047821853a91916d5ac9a58e4da993564736f6c63430008150033a2646970667358221220059fd440e1947f6c707f19d2d30fc644945f3b2a88c3adfb7304f79506f7fd1c64736f6c63430008150033",
    "linkReferences": {}
  },
  "methodIdentifiers": {
    "addGift(uint256,string)": "39b54d1a",
    "capsuleCounter()": "d2db53d7",
    "capsules(uint256)": "517bbf46",
    "createCapsule(uint256,uint256)": "15ce3807",
    "getGift(uint256,uint256)": "6cd077ed",
    "getGiftsCount(uint256)": "e50d914c",
    "openCapsule(uint256)": "5c18e55c"
  },
  "id": 1
}